{
  "contractName": "Marketplace",
  "abi": [
    {
      "inputs": [],
      "payable": false,
      "stateMutability": "nonpayable",
      "type": "constructor"
    },
    {
      "anonymous": false,
      "inputs": [
        {
          "indexed": false,
          "internalType": "uint256",
          "name": "id",
          "type": "uint256"
        },
        {
          "indexed": false,
          "internalType": "string",
          "name": "content",
          "type": "string"
        },
        {
          "indexed": false,
          "internalType": "uint256",
          "name": "tipAmount",
          "type": "uint256"
        },
        {
          "indexed": false,
          "internalType": "address payable",
          "name": "author",
          "type": "address"
        }
      ],
      "name": "PostCreated",
      "type": "event"
    },
    {
      "anonymous": false,
      "inputs": [
        {
          "indexed": false,
          "internalType": "uint256",
          "name": "id",
          "type": "uint256"
        },
        {
          "indexed": false,
          "internalType": "string",
          "name": "content",
          "type": "string"
        },
        {
          "indexed": false,
          "internalType": "uint256",
          "name": "tipAmount",
          "type": "uint256"
        },
        {
          "indexed": false,
          "internalType": "address payable",
          "name": "author",
          "type": "address"
        }
      ],
      "name": "PostTipped",
      "type": "event"
    },
    {
      "anonymous": false,
      "inputs": [
        {
          "indexed": false,
          "internalType": "uint256",
          "name": "id",
          "type": "uint256"
        },
        {
          "indexed": false,
          "internalType": "string",
          "name": "name",
          "type": "string"
        },
        {
          "indexed": false,
          "internalType": "uint256",
          "name": "price",
          "type": "uint256"
        },
        {
          "indexed": false,
          "internalType": "address payable",
          "name": "owner",
          "type": "address"
        },
        {
          "indexed": false,
          "internalType": "bool",
          "name": "purchased",
          "type": "bool"
        }
      ],
      "name": "ProductCreated",
      "type": "event"
    },
    {
      "anonymous": false,
      "inputs": [
        {
          "indexed": false,
          "internalType": "uint256",
          "name": "id",
          "type": "uint256"
        },
        {
          "indexed": false,
          "internalType": "string",
          "name": "name",
          "type": "string"
        },
        {
          "indexed": false,
          "internalType": "uint256",
          "name": "price",
          "type": "uint256"
        },
        {
          "indexed": false,
          "internalType": "address payable",
          "name": "owner",
          "type": "address"
        },
        {
          "indexed": false,
          "internalType": "bool",
          "name": "purchased",
          "type": "bool"
        }
      ],
      "name": "ProductPurchased",
      "type": "event"
    },
    {
      "constant": true,
      "inputs": [],
      "name": "name",
      "outputs": [
        {
          "internalType": "string",
          "name": "",
          "type": "string"
        }
      ],
      "payable": false,
      "stateMutability": "view",
      "type": "function"
    },
    {
      "constant": true,
      "inputs": [],
      "name": "postCount",
      "outputs": [
        {
          "internalType": "uint256",
          "name": "",
          "type": "uint256"
        }
      ],
      "payable": false,
      "stateMutability": "view",
      "type": "function"
    },
    {
      "constant": true,
      "inputs": [
        {
          "internalType": "uint256",
          "name": "",
          "type": "uint256"
        }
      ],
      "name": "posts",
      "outputs": [
        {
          "internalType": "uint256",
          "name": "id",
          "type": "uint256"
        },
        {
          "internalType": "string",
          "name": "content",
          "type": "string"
        },
        {
          "internalType": "uint256",
          "name": "tipAmount",
          "type": "uint256"
        },
        {
          "internalType": "address payable",
          "name": "author",
          "type": "address"
        }
      ],
      "payable": false,
      "stateMutability": "view",
      "type": "function"
    },
    {
      "constant": true,
      "inputs": [],
      "name": "productCount",
      "outputs": [
        {
          "internalType": "uint256",
          "name": "",
          "type": "uint256"
        }
      ],
      "payable": false,
      "stateMutability": "view",
      "type": "function"
    },
    {
      "constant": true,
      "inputs": [
        {
          "internalType": "uint256",
          "name": "",
          "type": "uint256"
        }
      ],
      "name": "products",
      "outputs": [
        {
          "internalType": "uint256",
          "name": "id",
          "type": "uint256"
        },
        {
          "internalType": "string",
          "name": "name",
          "type": "string"
        },
        {
          "internalType": "uint256",
          "name": "price",
          "type": "uint256"
        },
        {
          "internalType": "address payable",
          "name": "owner",
          "type": "address"
        },
        {
          "internalType": "bool",
          "name": "purchased",
          "type": "bool"
        }
      ],
      "payable": false,
      "stateMutability": "view",
      "type": "function"
    },
    {
      "constant": false,
      "inputs": [
        {
          "internalType": "string",
          "name": "_content",
          "type": "string"
        }
      ],
      "name": "createPost",
      "outputs": [],
      "payable": false,
      "stateMutability": "nonpayable",
      "type": "function"
    },
    {
      "constant": false,
      "inputs": [
        {
          "internalType": "uint256",
          "name": "_id",
          "type": "uint256"
        }
      ],
      "name": "tipPost",
      "outputs": [],
      "payable": true,
      "stateMutability": "payable",
      "type": "function"
    },
    {
      "constant": false,
      "inputs": [
        {
          "internalType": "string",
          "name": "_name",
          "type": "string"
        },
        {
          "internalType": "uint256",
          "name": "_price",
          "type": "uint256"
        }
      ],
      "name": "createProduct",
      "outputs": [],
      "payable": false,
      "stateMutability": "nonpayable",
      "type": "function"
    },
    {
      "constant": false,
      "inputs": [
        {
          "internalType": "uint256",
          "name": "_id",
          "type": "uint256"
        }
      ],
      "name": "purchaseProduct",
      "outputs": [],
      "payable": true,
      "stateMutability": "payable",
      "type": "function"
    }
  ],
  "bytecode": "0x6080604052600060015560006002553480156200001b57600080fd5b506040518060400160405280600981526020017f426f6f6b436861696e0000000000000000000000000000000000000000000000815250600090805190602001906200006992919062000070565b506200011f565b828054600181600116156101000203166002900490600052602060002090601f016020900481019282601f10620000b357805160ff1916838001178555620000e4565b82800160010185558215620000e4579182015b82811115620000e3578251825591602001919060010190620000c6565b5b509050620000f39190620000f7565b5090565b6200011c91905b8082111562000118576000816000905550600101620000fe565b5090565b90565b611466806200012f6000396000f3fe6080604052600436106100865760003560e01c806374d3c1f81161005957806374d3c1f8146102695780637acc0b2014610297578063c7303c6114610397578063e0f6ef871461045f578063e9300c6c1461048a57610086565b806306fdde031461008b5780630b1e7f831461011b57806317906c2e1461021057806338e76a031461023b575b600080fd5b34801561009757600080fd5b506100a061055c565b6040518080602001828103825283818151815260200191508051906020019080838360005b838110156100e05780820151818401526020810190506100c5565b50505050905090810190601f16801561010d5780820380516001836020036101000a031916815260200191505b509250505060405180910390f35b34801561012757600080fd5b506101546004803603602081101561013e57600080fd5b81019080803590602001909291905050506105fa565b60405180858152602001806020018481526020018373ffffffffffffffffffffffffffffffffffffffff1673ffffffffffffffffffffffffffffffffffffffff168152602001828103825285818151815260200191508051906020019080838360005b838110156101d25780820151818401526020810190506101b7565b50505050905090810190601f1680156101ff5780820380516001836020036101000a031916815260200191505b509550505050505060405180910390f35b34801561021c57600080fd5b506102256106e2565b6040518082815260200191505060405180910390f35b6102676004803603602081101561025157600080fd5b81019080803590602001909291905050506106e8565b005b6102956004803603602081101561027f57600080fd5b8101908080359060200190929190505050610af7565b005b3480156102a357600080fd5b506102d0600480360360208110156102ba57600080fd5b8101908080359060200190929190505050610e24565b60405180868152602001806020018581526020018473ffffffffffffffffffffffffffffffffffffffff1673ffffffffffffffffffffffffffffffffffffffff16815260200183151515158152602001828103825286818151815260200191508051906020019080838360005b8381101561035857808201518184015260208101905061033d565b50505050905090810190601f1680156103855780820380516001836020036101000a031916815260200191505b50965050505050505060405180910390f35b3480156103a357600080fd5b5061045d600480360360208110156103ba57600080fd5b81019080803590602001906401000000008111156103d757600080fd5b8201836020820111156103e957600080fd5b8035906020019184600183028401116401000000008311171561040b57600080fd5b91908080601f016020809104026020016040519081016040528093929190818152602001838380828437600081840152601f19601f820116905080830192505050505050509192919290505050610f1f565b005b34801561046b57600080fd5b506104746110ef565b6040518082815260200191505060405180910390f35b34801561049657600080fd5b5061055a600480360360408110156104ad57600080fd5b81019080803590602001906401000000008111156104ca57600080fd5b8201836020820111156104dc57600080fd5b803590602001918460018302840111640100000000831117156104fe57600080fd5b91908080601f016020809104026020016040519081016040528093929190818152602001838380828437600081840152601f19601f820116905080830192505050505050509192919290803590602001909291905050506110f5565b005b60008054600181600116156101000203166002900480601f0160208091040260200160405190810160405280929190818152602001828054600181600116156101000203166002900480156105f25780601f106105c7576101008083540402835291602001916105f2565b820191906000526020600020905b8154815290600101906020018083116105d557829003601f168201915b505050505081565b6004602052806000526040600020600091509050806000015490806001018054600181600116156101000203166002900480601f0160208091040260200160405190810160405280929190818152602001828054600181600116156101000203166002900480156106ac5780601f10610681576101008083540402835291602001916106ac565b820191906000526020600020905b81548152906001019060200180831161068f57829003601f168201915b5050505050908060020154908060030160009054906101000a900473ffffffffffffffffffffffffffffffffffffffff16905084565b60025481565b6106f0611307565b600360008381526020019081526020016000206040518060a001604052908160008201548152602001600182018054600181600116156101000203166002900480601f0160208091040260200160405190810160405280929190818152602001828054600181600116156101000203166002900480156107b15780601f10610786576101008083540402835291602001916107b1565b820191906000526020600020905b81548152906001019060200180831161079457829003601f168201915b50505050508152602001600282015481526020016003820160009054906101000a900473ffffffffffffffffffffffffffffffffffffffff1673ffffffffffffffffffffffffffffffffffffffff1673ffffffffffffffffffffffffffffffffffffffff1681526020016003820160149054906101000a900460ff16151515158152505090506000816060015190506000826000015111801561085a5750600154826000015111155b61086357600080fd5b816040015134101561087457600080fd5b81608001511561088357600080fd5b3373ffffffffffffffffffffffffffffffffffffffff168173ffffffffffffffffffffffffffffffffffffffff1614156108bc57600080fd5b33826060019073ffffffffffffffffffffffffffffffffffffffff16908173ffffffffffffffffffffffffffffffffffffffff16815250506001826080019015159081151581525050816003600085815260200190815260200160002060008201518160000155602082015181600101908051906020019061093f92919061134e565b506040820151816002015560608201518160030160006101000a81548173ffffffffffffffffffffffffffffffffffffffff021916908373ffffffffffffffffffffffffffffffffffffffff16021790555060808201518160030160146101000a81548160ff0219169083151502179055509050508073ffffffffffffffffffffffffffffffffffffffff166108fc349081150290604051600060405180830381858888f193505050501580156109fa573d6000803e3d6000fd5b507f79558d0d7d4d900e2f15c4cc0a665f1acdbe415e44de900ecdd1e5bf12b56f4e6001548360200151846040015133600160405180868152602001806020018581526020018473ffffffffffffffffffffffffffffffffffffffff1673ffffffffffffffffffffffffffffffffffffffff16815260200183151515158152602001828103825286818151815260200191508051906020019080838360005b83811015610ab4578082015181840152602081019050610a99565b50505050905090810190601f168015610ae15780820380516001836020036101000a031916815260200191505b50965050505050505060405180910390a1505050565b600081118015610b0957506002548111155b610b1257600080fd5b610b1a6113ce565b6004600083815260200190815260200160002060405180608001604052908160008201548152602001600182018054600181600116156101000203166002900480601f016020809104026020016040519081016040528092919081815260200182805460018160011615610100020316600290048015610bdb5780601f10610bb057610100808354040283529160200191610bdb565b820191906000526020600020905b815481529060010190602001808311610bbe57829003601f168201915b50505050508152602001600282015481526020016003820160009054906101000a900473ffffffffffffffffffffffffffffffffffffffff1673ffffffffffffffffffffffffffffffffffffffff1673ffffffffffffffffffffffffffffffffffffffff168152505090506000816060015190508073ffffffffffffffffffffffffffffffffffffffff166108fc349081150290604051600060405180830381858888f19350505050158015610c95573d6000803e3d6000fd5b50348260400151018260400181815250508160046000858152602001908152602001600020600082015181600001556020820151816001019080519060200190610ce092919061134e565b506040820151816002015560608201518160030160006101000a81548173ffffffffffffffffffffffffffffffffffffffff021916908373ffffffffffffffffffffffffffffffffffffffff1602179055509050507f20988fe475351e75813672abada1dddb7ac67cbbeb81e61e1160b8329d8cdf1c600254836020015184604001518460405180858152602001806020018481526020018373ffffffffffffffffffffffffffffffffffffffff1673ffffffffffffffffffffffffffffffffffffffff168152602001828103825285818151815260200191508051906020019080838360005b83811015610de2578082015181840152602081019050610dc7565b50505050905090810190601f168015610e0f5780820380516001836020036101000a031916815260200191505b509550505050505060405180910390a1505050565b6003602052806000526040600020600091509050806000015490806001018054600181600116156101000203166002900480601f016020809104026020016040519081016040528092919081815260200182805460018160011615610100020316600290048015610ed65780601f10610eab57610100808354040283529160200191610ed6565b820191906000526020600020905b815481529060010190602001808311610eb957829003601f168201915b5050505050908060020154908060030160009054906101000a900473ffffffffffffffffffffffffffffffffffffffff16908060030160149054906101000a900460ff16905085565b6000815111610f2d57600080fd5b60026000815480929190600101919050555060405180608001604052806002548152602001828152602001600081526020013373ffffffffffffffffffffffffffffffffffffffff16815250600460006002548152602001908152602001600020600082015181600001556020820151816001019080519060200190610fb492919061134e565b506040820151816002015560608201518160030160006101000a81548173ffffffffffffffffffffffffffffffffffffffff021916908373ffffffffffffffffffffffffffffffffffffffff1602179055509050507fc66336337a24e513f909b3b25119854dba8385d51307dbc7d31d1b2805e19c7e6002548260003360405180858152602001806020018481526020018373ffffffffffffffffffffffffffffffffffffffff1673ffffffffffffffffffffffffffffffffffffffff168152602001828103825285818151815260200191508051906020019080838360005b838110156110af578082015181840152602081019050611094565b50505050905090810190601f1680156110dc5780820380516001836020036101000a031916815260200191505b509550505050505060405180910390a150565b60015481565b600082511161110357600080fd5b6000811161111057600080fd5b6001600081548092919060010191905055506040518060a0016040528060015481526020018381526020018281526020013373ffffffffffffffffffffffffffffffffffffffff1681526020016000151581525060036000600154815260200190815260200160002060008201518160000155602082015181600101908051906020019061119f92919061134e565b506040820151816002015560608201518160030160006101000a81548173ffffffffffffffffffffffffffffffffffffffff021916908373ffffffffffffffffffffffffffffffffffffffff16021790555060808201518160030160146101000a81548160ff0219169083151502179055509050507fbc59c0c8165864dcceb377dd07d8f431d4303f8e501cb0a0374a10cc68d71836600154838333600060405180868152602001806020018581526020018473ffffffffffffffffffffffffffffffffffffffff1673ffffffffffffffffffffffffffffffffffffffff16815260200183151515158152602001828103825286818151815260200191508051906020019080838360005b838110156112c55780820151818401526020810190506112aa565b50505050905090810190601f1680156112f25780820380516001836020036101000a031916815260200191505b50965050505050505060405180910390a15050565b6040518060a00160405280600081526020016060815260200160008152602001600073ffffffffffffffffffffffffffffffffffffffff1681526020016000151581525090565b828054600181600116156101000203166002900490600052602060002090601f016020900481019282601f1061138f57805160ff19168380011785556113bd565b828001600101855582156113bd579182015b828111156113bc5782518255916020019190600101906113a1565b5b5090506113ca919061140c565b5090565b6040518060800160405280600081526020016060815260200160008152602001600073ffffffffffffffffffffffffffffffffffffffff1681525090565b61142e91905b8082111561142a576000816000905550600101611412565b5090565b9056fea265627a7a72315820f94ff3092934f69b9cc859a85d33ae2d31e9e20ada9e295bf7e4b0b263002a5664736f6c63430005100032",
  "source": "pragma solidity ^0.5.0;\n\ncontract Marketplace {\n    string public name;\n    uint public productCount = 0;\n    uint public postCount = 0;\n    mapping(uint => Product) public products;\n    mapping(uint => Post) public posts;\n\n    struct Post {\n        uint id;\n        string content;\n        uint tipAmount;\n        address payable author;\n    }\n\n    struct Product {\n        uint id;\n        string name;\n        uint price;\n        address payable owner;\n        bool purchased;\n    }\n\n    event PostCreated(\n        uint id,\n        string content,\n        uint tipAmount,\n        address payable author\n    );\n\n    event PostTipped(\n        uint id,\n        string content,\n        uint tipAmount,\n        address payable author\n    );\n\n\n    event ProductCreated(\n        uint id,\n        string name,\n        uint price,\n        address payable owner,\n        bool purchased\n    );\n\n    event ProductPurchased(\n        uint id,\n        string name,\n        uint price,\n        address payable owner,\n        bool purchased\n    );\n\n    constructor() public {\n        name = \"BookChain\";\n    }\n\n    function createPost(string memory _content) public {\n        // Require valid content\n        require(bytes(_content).length > 0);\n        // Increment the post count\n        postCount ++;\n        // Create the post\n        posts[postCount] = Post(postCount, _content, 0, msg.sender);\n        // Trigger event\n        emit PostCreated(postCount, _content, 0, msg.sender);\n    }\n\n    function tipPost(uint _id) public payable {\n        // Make sure the id is valid\n        require(_id > 0 && _id <= postCount);\n        // Fetch the post\n        Post memory _post = posts[_id];\n        // Fetch the author\n        address payable _author = _post.author;\n        // Pay the author by sending them Ether\n        address(_author).transfer(msg.value);\n        // Incremet the tip amount\n        _post.tipAmount = _post.tipAmount + msg.value;\n        // Update the post\n        posts[_id] = _post;\n        // Trigger an event\n        emit PostTipped(postCount, _post.content, _post.tipAmount, _author);\n    }\n\n    function createProduct(string memory _name, uint _price) public {\n        // Require a valid name\n        require(bytes(_name).length > 0);\n        // Require a valid price\n        require(_price > 0);\n        // Increment product count\n        productCount ++;\n        // Create the product\n        products[productCount] = Product(productCount, _name, _price, msg.sender, false);\n        // Trigger an event\n        emit ProductCreated(productCount, _name, _price, msg.sender, false);\n    }\n\n    function purchaseProduct(uint _id) public payable {\n        // Fetch the product\n        Product memory _product = products[_id];\n        // Fetch the owner\n        address payable _seller = _product.owner;\n        // Make sure the product has a valid id\n        require(_product.id > 0 && _product.id <= productCount);\n        // Require that there is enough Ether in the transaction\n        require(msg.value >= _product.price);\n        // Require that the product has not been purchased already\n        require(!_product.purchased);\n        // Require that the buyer is not the seller\n        require(_seller != msg.sender);\n        // Transfer ownership to the buyer\n        _product.owner = msg.sender;\n        // Mark as purchased\n        _product.purchased = true;\n        // Update the product\n        products[_id] = _product;\n        // Pay the seller by sending them Ether\n        address(_seller).transfer(msg.value);\n        // Trigger an event\n        emit ProductPurchased(productCount, _product.name, _product.price, msg.sender, true);\n    }\n}\n",
  "sourcePath": "C:/Users/ABHINAV ANAND/Desktop/marketplace-master/marketplace-master/src/contracts/Marketplace.sol",
  "compiler": {
    "name": "solc",
    "version": "0.5.16+commit.9c3226ce.Emscripten.clang"
  },
  "schemaVersion": "3.3.4",
  "updatedAt": "2021-04-08T21:16:31.571Z",
  "networkType": "ethereum",
  "devdoc": {
    "methods": {}
  },
  "userdoc": {
    "methods": {}
  }
}