{
  "contractName": "Marketplace",
  "abi": [
    {
      "inputs": [],
      "payable": false,
      "stateMutability": "nonpayable",
      "type": "constructor"
    },
    {
      "anonymous": false,
      "inputs": [
        {
          "indexed": false,
          "internalType": "uint256",
          "name": "id",
          "type": "uint256"
        },
        {
          "indexed": false,
          "internalType": "string",
          "name": "heading",
          "type": "string"
        },
        {
          "indexed": false,
          "internalType": "string",
          "name": "content",
          "type": "string"
        },
        {
          "indexed": false,
          "internalType": "address payable",
          "name": "writer",
          "type": "address"
        }
      ],
      "name": "PostCreated",
      "type": "event"
    },
    {
      "anonymous": false,
      "inputs": [
        {
          "indexed": false,
          "internalType": "uint256",
          "name": "id",
          "type": "uint256"
        },
        {
          "indexed": false,
          "internalType": "string",
          "name": "name",
          "type": "string"
        },
        {
          "indexed": false,
          "internalType": "string",
          "name": "info",
          "type": "string"
        },
        {
          "indexed": false,
          "internalType": "string",
          "name": "author",
          "type": "string"
        },
        {
          "indexed": false,
          "internalType": "uint256",
          "name": "price",
          "type": "uint256"
        },
        {
          "indexed": false,
          "internalType": "address payable",
          "name": "owner",
          "type": "address"
        },
        {
          "indexed": false,
          "internalType": "bool",
          "name": "purchased",
          "type": "bool"
        },
        {
          "indexed": false,
          "internalType": "address",
          "name": "seller",
          "type": "address"
        }
      ],
      "name": "ProductCreated",
      "type": "event"
    },
    {
      "anonymous": false,
      "inputs": [
        {
          "indexed": false,
          "internalType": "uint256",
          "name": "id",
          "type": "uint256"
        },
        {
          "indexed": false,
          "internalType": "string",
          "name": "name",
          "type": "string"
        },
        {
          "indexed": false,
          "internalType": "string",
          "name": "info",
          "type": "string"
        },
        {
          "indexed": false,
          "internalType": "string",
          "name": "author",
          "type": "string"
        },
        {
          "indexed": false,
          "internalType": "uint256",
          "name": "price",
          "type": "uint256"
        },
        {
          "indexed": false,
          "internalType": "address payable",
          "name": "owner",
          "type": "address"
        },
        {
          "indexed": false,
          "internalType": "bool",
          "name": "purchased",
          "type": "bool"
        },
        {
          "indexed": false,
          "internalType": "address",
          "name": "seller",
          "type": "address"
        }
      ],
      "name": "ProductPurchased",
      "type": "event"
    },
    {
      "constant": true,
      "inputs": [],
      "name": "name",
      "outputs": [
        {
          "internalType": "string",
          "name": "",
          "type": "string"
        }
      ],
      "payable": false,
      "stateMutability": "view",
      "type": "function"
    },
    {
      "constant": true,
      "inputs": [],
      "name": "postCount",
      "outputs": [
        {
          "internalType": "uint256",
          "name": "",
          "type": "uint256"
        }
      ],
      "payable": false,
      "stateMutability": "view",
      "type": "function"
    },
    {
      "constant": true,
      "inputs": [
        {
          "internalType": "uint256",
          "name": "",
          "type": "uint256"
        }
      ],
      "name": "posts",
      "outputs": [
        {
          "internalType": "uint256",
          "name": "id",
          "type": "uint256"
        },
        {
          "internalType": "string",
          "name": "heading",
          "type": "string"
        },
        {
          "internalType": "string",
          "name": "content",
          "type": "string"
        },
        {
          "internalType": "address payable",
          "name": "writer",
          "type": "address"
        }
      ],
      "payable": false,
      "stateMutability": "view",
      "type": "function"
    },
    {
      "constant": true,
      "inputs": [],
      "name": "productCount",
      "outputs": [
        {
          "internalType": "uint256",
          "name": "",
          "type": "uint256"
        }
      ],
      "payable": false,
      "stateMutability": "view",
      "type": "function"
    },
    {
      "constant": true,
      "inputs": [
        {
          "internalType": "uint256",
          "name": "",
          "type": "uint256"
        }
      ],
      "name": "products",
      "outputs": [
        {
          "internalType": "uint256",
          "name": "id",
          "type": "uint256"
        },
        {
          "internalType": "string",
          "name": "name",
          "type": "string"
        },
        {
          "internalType": "string",
          "name": "info",
          "type": "string"
        },
        {
          "internalType": "string",
          "name": "author",
          "type": "string"
        },
        {
          "internalType": "uint256",
          "name": "price",
          "type": "uint256"
        },
        {
          "internalType": "address payable",
          "name": "owner",
          "type": "address"
        },
        {
          "internalType": "bool",
          "name": "purchased",
          "type": "bool"
        },
        {
          "internalType": "address",
          "name": "seller",
          "type": "address"
        }
      ],
      "payable": false,
      "stateMutability": "view",
      "type": "function"
    },
    {
      "constant": false,
      "inputs": [
        {
          "internalType": "string",
          "name": "_heading",
          "type": "string"
        },
        {
          "internalType": "string",
          "name": "_content",
          "type": "string"
        }
      ],
      "name": "createPost",
      "outputs": [],
      "payable": false,
      "stateMutability": "nonpayable",
      "type": "function"
    },
    {
      "constant": false,
      "inputs": [
        {
          "internalType": "string",
          "name": "_name",
          "type": "string"
        },
        {
          "internalType": "string",
          "name": "_info",
          "type": "string"
        },
        {
          "internalType": "string",
          "name": "_author",
          "type": "string"
        },
        {
          "internalType": "uint256",
          "name": "_price",
          "type": "uint256"
        }
      ],
      "name": "createProduct",
      "outputs": [],
      "payable": false,
      "stateMutability": "nonpayable",
      "type": "function"
    },
    {
      "constant": false,
      "inputs": [
        {
          "internalType": "uint256",
          "name": "_id",
          "type": "uint256"
        }
      ],
      "name": "purchaseProduct",
      "outputs": [],
      "payable": true,
      "stateMutability": "payable",
      "type": "function"
    }
  ],
  "bytecode": "0x6080604052600060015560006002553480156200001b57600080fd5b506040518060400160405280600981526020017f426f6f6b436861696e0000000000000000000000000000000000000000000000815250600090805190602001906200006992919062000070565b506200011f565b828054600181600116156101000203166002900490600052602060002090601f016020900481019282601f10620000b357805160ff1916838001178555620000e4565b82800160010185558215620000e4579182015b82811115620000e3578251825591602001919060010190620000c6565b5b509050620000f39190620000f7565b5090565b6200011c91905b8082111562000118576000816000905550600101620000fe565b5090565b90565b611ba6806200012f6000396000f3fe60806040526004361061007b5760003560e01c806338e76a031161004e57806338e76a0314610495578063392338f5146104c35780637acc0b2014610622578063e0f6ef871461082d5761007b565b806306fdde03146100805780630b1e7f831461011057806317906c2e1461026a5780631b61040d14610295575b600080fd5b34801561008c57600080fd5b50610095610858565b6040518080602001828103825283818151815260200191508051906020019080838360005b838110156100d55780820151818401526020810190506100ba565b50505050905090810190601f1680156101025780820380516001836020036101000a031916815260200191505b509250505060405180910390f35b34801561011c57600080fd5b506101496004803603602081101561013357600080fd5b81019080803590602001909291905050506108f6565b6040518085815260200180602001806020018473ffffffffffffffffffffffffffffffffffffffff1673ffffffffffffffffffffffffffffffffffffffff168152602001838103835286818151815260200191508051906020019080838360005b838110156101c55780820151818401526020810190506101aa565b50505050905090810190601f1680156101f25780820380516001836020036101000a031916815260200191505b50838103825285818151815260200191508051906020019080838360005b8381101561022b578082015181840152602081019050610210565b50505050905090810190601f1680156102585780820380516001836020036101000a031916815260200191505b50965050505050505060405180910390f35b34801561027657600080fd5b5061027f610a76565b6040518082815260200191505060405180910390f35b3480156102a157600080fd5b50610493600480360360808110156102b857600080fd5b81019080803590602001906401000000008111156102d557600080fd5b8201836020820111156102e757600080fd5b8035906020019184600183028401116401000000008311171561030957600080fd5b91908080601f016020809104026020016040519081016040528093929190818152602001838380828437600081840152601f19601f8201169050808301925050505050505091929192908035906020019064010000000081111561036c57600080fd5b82018360208201111561037e57600080fd5b803590602001918460018302840111640100000000831117156103a057600080fd5b91908080601f016020809104026020016040519081016040528093929190818152602001838380828437600081840152601f19601f8201169050808301925050505050505091929192908035906020019064010000000081111561040357600080fd5b82018360208201111561041557600080fd5b8035906020019184600183028401116401000000008311171561043757600080fd5b91908080601f016020809104026020016040519081016040528093929190818152602001838380828437600081840152601f19601f82011690508083019250505050505050919291929080359060200190929190505050610a7c565b005b6104c1600480360360208110156104ab57600080fd5b8101908080359060200190929190505050610e64565b005b3480156104cf57600080fd5b50610620600480360360408110156104e657600080fd5b810190808035906020019064010000000081111561050357600080fd5b82018360208201111561051557600080fd5b8035906020019184600183028401116401000000008311171561053757600080fd5b91908080601f016020809104026020016040519081016040528093929190818152602001838380828437600081840152601f19601f8201169050808301925050505050505091929192908035906020019064010000000081111561059a57600080fd5b8201836020820111156105ac57600080fd5b803590602001918460018302840111640100000000831117156105ce57600080fd5b91908080601f016020809104026020016040519081016040528093929190818152602001838380828437600081840152601f19601f8201169050808301925050505050505091929192905050506115af565b005b34801561062e57600080fd5b5061065b6004803603602081101561064557600080fd5b81019080803590602001909291905050506117f6565b604051808981526020018060200180602001806020018881526020018773ffffffffffffffffffffffffffffffffffffffff1673ffffffffffffffffffffffffffffffffffffffff168152602001861515151581526020018573ffffffffffffffffffffffffffffffffffffffff1673ffffffffffffffffffffffffffffffffffffffff16815260200184810384528b818151815260200191508051906020019080838360005b8381101561071d578082015181840152602081019050610702565b50505050905090810190601f16801561074a5780820380516001836020036101000a031916815260200191505b5084810383528a818151815260200191508051906020019080838360005b83811015610783578082015181840152602081019050610768565b50505050905090810190601f1680156107b05780820380516001836020036101000a031916815260200191505b50848103825289818151815260200191508051906020019080838360005b838110156107e95780820151818401526020810190506107ce565b50505050905090810190601f1680156108165780820380516001836020036101000a031916815260200191505b509b50505050505050505050505060405180910390f35b34801561083957600080fd5b50610842611a53565b6040518082815260200191505060405180910390f35b60008054600181600116156101000203166002900480601f0160208091040260200160405190810160405280929190818152602001828054600181600116156101000203166002900480156108ee5780601f106108c3576101008083540402835291602001916108ee565b820191906000526020600020905b8154815290600101906020018083116108d157829003601f168201915b505050505081565b6004602052806000526040600020600091509050806000015490806001018054600181600116156101000203166002900480601f0160208091040260200160405190810160405280929190818152602001828054600181600116156101000203166002900480156109a85780601f1061097d576101008083540402835291602001916109a8565b820191906000526020600020905b81548152906001019060200180831161098b57829003601f168201915b505050505090806002018054600181600116156101000203166002900480601f016020809104026020016040519081016040528092919081815260200182805460018160011615610100020316600290048015610a465780601f10610a1b57610100808354040283529160200191610a46565b820191906000526020600020905b815481529060010190602001808311610a2957829003601f168201915b5050505050908060030160009054906101000a900473ffffffffffffffffffffffffffffffffffffffff16905084565b60025481565b6000845111610a8a57600080fd5b6000835111610a9857600080fd5b6000825111610aa657600080fd5b60008111610ab357600080fd5b60016000815480929190600101919050555060405180610100016040528060015481526020018581526020018481526020018381526020018281526020013373ffffffffffffffffffffffffffffffffffffffff1681526020016000151581526020013373ffffffffffffffffffffffffffffffffffffffff16815250600360006001548152602001908152602001600020600082015181600001556020820151816001019080519060200190610b6b929190611a59565b506040820151816002019080519060200190610b88929190611a59565b506060820151816003019080519060200190610ba5929190611a59565b506080820151816004015560a08201518160050160006101000a81548173ffffffffffffffffffffffffffffffffffffffff021916908373ffffffffffffffffffffffffffffffffffffffff16021790555060c08201518160050160146101000a81548160ff02191690831515021790555060e08201518160060160006101000a81548173ffffffffffffffffffffffffffffffffffffffff021916908373ffffffffffffffffffffffffffffffffffffffff1602179055509050507facb3e5883c391cd411ae2431d4a8d2c94469b2a94081e3787ccf2e2f08bc9d0e6001548585858533600033604051808981526020018060200180602001806020018881526020018773ffffffffffffffffffffffffffffffffffffffff1673ffffffffffffffffffffffffffffffffffffffff168152602001861515151581526020018573ffffffffffffffffffffffffffffffffffffffff1673ffffffffffffffffffffffffffffffffffffffff16815260200184810384528b818151815260200191508051906020019080838360005b83811015610d4f578082015181840152602081019050610d34565b50505050905090810190601f168015610d7c5780820380516001836020036101000a031916815260200191505b5084810383528a818151815260200191508051906020019080838360005b83811015610db5578082015181840152602081019050610d9a565b50505050905090810190601f168015610de25780820380516001836020036101000a031916815260200191505b50848103825289818151815260200191508051906020019080838360005b83811015610e1b578082015181840152602081019050610e00565b50505050905090810190601f168015610e485780820380516001836020036101000a031916815260200191505b509b50505050505050505050505060405180910390a150505050565b610e6c611ad9565b600360008381526020019081526020016000206040518061010001604052908160008201548152602001600182018054600181600116156101000203166002900480601f016020809104026020016040519081016040528092919081815260200182805460018160011615610100020316600290048015610f2e5780601f10610f0357610100808354040283529160200191610f2e565b820191906000526020600020905b815481529060010190602001808311610f1157829003601f168201915b50505050508152602001600282018054600181600116156101000203166002900480601f016020809104026020016040519081016040528092919081815260200182805460018160011615610100020316600290048015610fd05780601f10610fa557610100808354040283529160200191610fd0565b820191906000526020600020905b815481529060010190602001808311610fb357829003601f168201915b50505050508152602001600382018054600181600116156101000203166002900480601f0160208091040260200160405190810160405280929190818152602001828054600181600116156101000203166002900480156110725780601f1061104757610100808354040283529160200191611072565b820191906000526020600020905b81548152906001019060200180831161105557829003601f168201915b50505050508152602001600482015481526020016005820160009054906101000a900473ffffffffffffffffffffffffffffffffffffffff1673ffffffffffffffffffffffffffffffffffffffff1673ffffffffffffffffffffffffffffffffffffffff1681526020016005820160149054906101000a900460ff161515151581526020016006820160009054906101000a900473ffffffffffffffffffffffffffffffffffffffff1673ffffffffffffffffffffffffffffffffffffffff1673ffffffffffffffffffffffffffffffffffffffff1681525050905060008160a00151905060008260e0015190506000836000015111801561117a5750600154836000015111155b61118357600080fd5b826080015134101561119457600080fd5b8260c00151156111a357600080fd5b3373ffffffffffffffffffffffffffffffffffffffff168273ffffffffffffffffffffffffffffffffffffffff1614156111dc57600080fd5b338360a0019073ffffffffffffffffffffffffffffffffffffffff16908173ffffffffffffffffffffffffffffffffffffffff168152505060018360c0019015159081151581525050826003600086815260200190815260200160002060008201518160000155602082015181600101908051906020019061125f929190611a59565b50604082015181600201908051906020019061127c929190611a59565b506060820151816003019080519060200190611299929190611a59565b506080820151816004015560a08201518160050160006101000a81548173ffffffffffffffffffffffffffffffffffffffff021916908373ffffffffffffffffffffffffffffffffffffffff16021790555060c08201518160050160146101000a81548160ff02191690831515021790555060e08201518160060160006101000a81548173ffffffffffffffffffffffffffffffffffffffff021916908373ffffffffffffffffffffffffffffffffffffffff1602179055509050508173ffffffffffffffffffffffffffffffffffffffff166108fc349081150290604051600060405180830381858888f1935050505015801561139b573d6000803e3d6000fd5b507fe0b657f409ed52f7284464a06d1379465eb331f0d396126634e0179920c63ab1600154846020015185604001518660600151876080015133600188604051808981526020018060200180602001806020018881526020018773ffffffffffffffffffffffffffffffffffffffff1673ffffffffffffffffffffffffffffffffffffffff168152602001861515151581526020018573ffffffffffffffffffffffffffffffffffffffff1673ffffffffffffffffffffffffffffffffffffffff16815260200184810384528b818151815260200191508051906020019080838360005b8381101561149a57808201518184015260208101905061147f565b50505050905090810190601f1680156114c75780820380516001836020036101000a031916815260200191505b5084810383528a818151815260200191508051906020019080838360005b838110156115005780820151818401526020810190506114e5565b50505050905090810190601f16801561152d5780820380516001836020036101000a031916815260200191505b50848103825289818151815260200191508051906020019080838360005b8381101561156657808201518184015260208101905061154b565b50505050905090810190601f1680156115935780820380516001836020036101000a031916815260200191505b509b50505050505050505050505060405180910390a150505050565b60008151116115bd57600080fd5b600260008154809291906001019190505550604051806080016040528060025481526020018381526020018281526020013373ffffffffffffffffffffffffffffffffffffffff16815250600460006002548152602001908152602001600020600082015181600001556020820151816001019080519060200190611643929190611a59565b506040820151816002019080519060200190611660929190611a59565b5060608201518160030160006101000a81548173ffffffffffffffffffffffffffffffffffffffff021916908373ffffffffffffffffffffffffffffffffffffffff1602179055509050507fb80f87406b72baa5a47a424e6c8f284ee91e4fef063c94c62ab1ea33a27a858b6002548383336040518085815260200180602001806020018473ffffffffffffffffffffffffffffffffffffffff1673ffffffffffffffffffffffffffffffffffffffff168152602001838103835286818151815260200191508051906020019080838360005b8381101561174e578082015181840152602081019050611733565b50505050905090810190601f16801561177b5780820380516001836020036101000a031916815260200191505b50838103825285818151815260200191508051906020019080838360005b838110156117b4578082015181840152602081019050611799565b50505050905090810190601f1680156117e15780820380516001836020036101000a031916815260200191505b50965050505050505060405180910390a15050565b6003602052806000526040600020600091509050806000015490806001018054600181600116156101000203166002900480601f0160208091040260200160405190810160405280929190818152602001828054600181600116156101000203166002900480156118a85780601f1061187d576101008083540402835291602001916118a8565b820191906000526020600020905b81548152906001019060200180831161188b57829003601f168201915b505050505090806002018054600181600116156101000203166002900480601f0160208091040260200160405190810160405280929190818152602001828054600181600116156101000203166002900480156119465780601f1061191b57610100808354040283529160200191611946565b820191906000526020600020905b81548152906001019060200180831161192957829003601f168201915b505050505090806003018054600181600116156101000203166002900480601f0160208091040260200160405190810160405280929190818152602001828054600181600116156101000203166002900480156119e45780601f106119b9576101008083540402835291602001916119e4565b820191906000526020600020905b8154815290600101906020018083116119c757829003601f168201915b5050505050908060040154908060050160009054906101000a900473ffffffffffffffffffffffffffffffffffffffff16908060050160149054906101000a900460ff16908060060160009054906101000a900473ffffffffffffffffffffffffffffffffffffffff16905088565b60015481565b828054600181600116156101000203166002900490600052602060002090601f016020900481019282601f10611a9a57805160ff1916838001178555611ac8565b82800160010185558215611ac8579182015b82811115611ac7578251825591602001919060010190611aac565b5b509050611ad59190611b4c565b5090565b6040518061010001604052806000815260200160608152602001606081526020016060815260200160008152602001600073ffffffffffffffffffffffffffffffffffffffff168152602001600015158152602001600073ffffffffffffffffffffffffffffffffffffffff1681525090565b611b6e91905b80821115611b6a576000816000905550600101611b52565b5090565b9056fea265627a7a7231582018adde2c4c7dfba011d0c3dce302ca9c38340b2ee11cb3583b63e73a5030855364736f6c63430005100032",
  "source": "pragma solidity ^0.5.0;\n\ncontract Marketplace {\n    string public name;\n    uint public productCount = 0;\n    uint public postCount = 0;\n    mapping(uint => Product) public products;\n    mapping(uint => Post) public posts;\n\n    struct Post {\n        uint id;\n        string heading;\n        string content;   \n        address payable writer;\n    }\n\n    struct Product {\n        uint id;\n        string name;\n        string info;\n        string author;\n        uint price;\n        address payable owner;\n        bool purchased;\n        address seller;\n    }\n\n    event PostCreated(\n        uint id,\n        string heading,\n        string content,\n        address payable writer\n    );\n\n\n\n    event ProductCreated(\n        uint id,\n        string name,\n        string info,\n        string author,\n        uint price,\n        address payable owner,\n        bool purchased,\n        address seller\n    );\n\n    event ProductPurchased(\n        uint id,\n        string name,\n        string info,\n        string author,\n        uint price,\n        address payable owner,\n        bool purchased,\n        address seller\n    );\n\n    constructor() public {\n        name = \"BookChain\";\n    }\n\n    function createPost(string memory _heading, string memory _content) public {\n        // Require valid content\n        // require(bytes(_heading).length > 0);\n        require(bytes(_content).length > 0);\n        \n        // Increment the post count\n        postCount ++;\n        // Create the post\n        posts[postCount] = Post(postCount, _heading, _content, msg.sender);\n        // Trigger event\n        emit PostCreated(postCount, _heading, _content, msg.sender);\n    }\n\n\n    function createProduct(string memory _name, string memory _info, string memory _author, uint _price) public {\n        // Require a valid name\n        require(bytes(_name).length > 0);\n        // Require a valid info\n        require(bytes(_info).length > 0);\n        // Require a valid author\n        require(bytes(_author).length > 0);\n        // Require a valid price\n        require(_price > 0);\n        // Increment product count\n        productCount ++;\n        // Create the product\n        products[productCount] = Product(productCount, _name, _info, _author, _price, msg.sender, false, msg.sender);\n        // Trigger an event\n        emit ProductCreated(productCount, _name, _info, _author, _price, msg.sender, false, msg.sender);\n    }\n\n    function purchaseProduct(uint _id) public payable {\n        // Fetch the product\n        Product memory _product = products[_id];\n        // Fetch the owner\n        address payable _seller = _product.owner;\n        // Fetch original owner\n        address og_owner = _product.seller;\n        // Make sure the product has a valid id\n        require(_product.id > 0 && _product.id <= productCount);\n        // Require that there is enough Ether in the transaction\n        require(msg.value >= _product.price);\n        // Require that the product has not been purchased already\n        require(!_product.purchased);\n        // Require that the buyer is not the seller\n        require(_seller != msg.sender);\n        // Transfer ownership to the buyer\n        _product.owner = msg.sender;\n        // Mark as purchased\n        _product.purchased = true;\n        // Update the product\n        products[_id] = _product;\n        // Pay the seller by sending them Ether\n        address(_seller).transfer(msg.value);\n        // Trigger an event\n        emit ProductPurchased(productCount, _product.name, _product.info, _product.author, _product.price, msg.sender, true, og_owner);\n    }\n}\n",
  "sourcePath": "D:/github/BookChain-36/src/contracts/Marketplace.sol",
  "compiler": {
    "name": "solc",
    "version": "0.5.16+commit.9c3226ce.Emscripten.clang"
  },
  "schemaVersion": "3.3.4",
  "updatedAt": "2021-04-10T20:35:34.586Z",
  "networkType": "ethereum",
  "devdoc": {
    "methods": {}
  },
  "userdoc": {
    "methods": {}
  }
}